{
  "_format": "hh-sol-artifact-1",
  "contractName": "Test",
  "sourceName": "contracts/Nft.sol",
  "abi": [
    {
      "inputs": [
        {
          "internalType": "string",
          "name": "name",
          "type": "string"
        },
        {
          "internalType": "string",
          "name": "symbol",
          "type": "string"
        },
        {
          "internalType": "bytes32",
          "name": "merkleroot",
          "type": "bytes32"
        }
      ],
      "stateMutability": "nonpayable",
      "type": "constructor"
    },
    {
      "anonymous": false,
      "inputs": [
        {
          "indexed": true,
          "internalType": "address",
          "name": "owner",
          "type": "address"
        },
        {
          "indexed": true,
          "internalType": "address",
          "name": "approved",
          "type": "address"
        },
        {
          "indexed": true,
          "internalType": "uint256",
          "name": "tokenId",
          "type": "uint256"
        }
      ],
      "name": "Approval",
      "type": "event"
    },
    {
      "anonymous": false,
      "inputs": [
        {
          "indexed": true,
          "internalType": "address",
          "name": "owner",
          "type": "address"
        },
        {
          "indexed": true,
          "internalType": "address",
          "name": "operator",
          "type": "address"
        },
        {
          "indexed": false,
          "internalType": "bool",
          "name": "approved",
          "type": "bool"
        }
      ],
      "name": "ApprovalForAll",
      "type": "event"
    },
    {
      "anonymous": false,
      "inputs": [
        {
          "indexed": true,
          "internalType": "address",
          "name": "previousOwner",
          "type": "address"
        },
        {
          "indexed": true,
          "internalType": "address",
          "name": "newOwner",
          "type": "address"
        }
      ],
      "name": "OwnershipTransferred",
      "type": "event"
    },
    {
      "anonymous": false,
      "inputs": [
        {
          "indexed": true,
          "internalType": "address",
          "name": "from",
          "type": "address"
        },
        {
          "indexed": true,
          "internalType": "address",
          "name": "to",
          "type": "address"
        },
        {
          "indexed": true,
          "internalType": "uint256",
          "name": "tokenId",
          "type": "uint256"
        }
      ],
      "name": "Transfer",
      "type": "event"
    },
    {
      "inputs": [],
      "name": "IS_PRESALE_ACTIVE",
      "outputs": [
        {
          "internalType": "bool",
          "name": "",
          "type": "bool"
        }
      ],
      "stateMutability": "view",
      "type": "function"
    },
    {
      "inputs": [],
      "name": "IS_SALE_ACTIVE",
      "outputs": [
        {
          "internalType": "bool",
          "name": "",
          "type": "bool"
        }
      ],
      "stateMutability": "view",
      "type": "function"
    },
    {
      "inputs": [],
      "name": "MINT_PRICE",
      "outputs": [
        {
          "internalType": "uint256",
          "name": "",
          "type": "uint256"
        }
      ],
      "stateMutability": "view",
      "type": "function"
    },
    {
      "inputs": [],
      "name": "TOTAL_SUPPLY",
      "outputs": [
        {
          "internalType": "uint256",
          "name": "",
          "type": "uint256"
        }
      ],
      "stateMutability": "view",
      "type": "function"
    },
    {
      "inputs": [
        {
          "internalType": "address",
          "name": "to",
          "type": "address"
        },
        {
          "internalType": "uint256",
          "name": "tokenId",
          "type": "uint256"
        }
      ],
      "name": "approve",
      "outputs": [],
      "stateMutability": "nonpayable",
      "type": "function"
    },
    {
      "inputs": [
        {
          "internalType": "address",
          "name": "owner",
          "type": "address"
        }
      ],
      "name": "balanceOf",
      "outputs": [
        {
          "internalType": "uint256",
          "name": "",
          "type": "uint256"
        }
      ],
      "stateMutability": "view",
      "type": "function"
    },
    {
      "inputs": [
        {
          "internalType": "uint256",
          "name": "tokenId",
          "type": "uint256"
        }
      ],
      "name": "getApproved",
      "outputs": [
        {
          "internalType": "address",
          "name": "",
          "type": "address"
        }
      ],
      "stateMutability": "view",
      "type": "function"
    },
    {
      "inputs": [
        {
          "internalType": "address",
          "name": "_account",
          "type": "address"
        }
      ],
      "name": "getCurrentMintCount",
      "outputs": [
        {
          "internalType": "uint256",
          "name": "",
          "type": "uint256"
        }
      ],
      "stateMutability": "view",
      "type": "function"
    },
    {
      "inputs": [
        {
          "internalType": "address",
          "name": "owner",
          "type": "address"
        },
        {
          "internalType": "address",
          "name": "operator",
          "type": "address"
        }
      ],
      "name": "isApprovedForAll",
      "outputs": [
        {
          "internalType": "bool",
          "name": "",
          "type": "bool"
        }
      ],
      "stateMutability": "view",
      "type": "function"
    },
    {
      "inputs": [],
      "name": "name",
      "outputs": [
        {
          "internalType": "string",
          "name": "",
          "type": "string"
        }
      ],
      "stateMutability": "view",
      "type": "function"
    },
    {
      "inputs": [],
      "name": "owner",
      "outputs": [
        {
          "internalType": "address",
          "name": "",
          "type": "address"
        }
      ],
      "stateMutability": "view",
      "type": "function"
    },
    {
      "inputs": [
        {
          "internalType": "uint256",
          "name": "numberOfTokens",
          "type": "uint256"
        }
      ],
      "name": "ownerMint",
      "outputs": [],
      "stateMutability": "nonpayable",
      "type": "function"
    },
    {
      "inputs": [
        {
          "internalType": "uint256",
          "name": "tokenId",
          "type": "uint256"
        }
      ],
      "name": "ownerOf",
      "outputs": [
        {
          "internalType": "address",
          "name": "",
          "type": "address"
        }
      ],
      "stateMutability": "view",
      "type": "function"
    },
    {
      "inputs": [
        {
          "internalType": "address",
          "name": "account",
          "type": "address"
        },
        {
          "internalType": "uint256",
          "name": "numberOfTokens",
          "type": "uint256"
        },
        {
          "internalType": "uint256",
          "name": "allowance",
          "type": "uint256"
        },
        {
          "internalType": "bytes32[]",
          "name": "proof",
          "type": "bytes32[]"
        }
      ],
      "name": "presaleMint",
      "outputs": [],
      "stateMutability": "payable",
      "type": "function"
    },
    {
      "inputs": [
        {
          "internalType": "uint256",
          "name": "numberOfTokens",
          "type": "uint256"
        }
      ],
      "name": "publicSaleMint",
      "outputs": [],
      "stateMutability": "payable",
      "type": "function"
    },
    {
      "inputs": [],
      "name": "renounceOwnership",
      "outputs": [],
      "stateMutability": "nonpayable",
      "type": "function"
    },
    {
      "inputs": [],
      "name": "root",
      "outputs": [
        {
          "internalType": "bytes32",
          "name": "",
          "type": "bytes32"
        }
      ],
      "stateMutability": "view",
      "type": "function"
    },
    {
      "inputs": [
        {
          "internalType": "address",
          "name": "from",
          "type": "address"
        },
        {
          "internalType": "address",
          "name": "to",
          "type": "address"
        },
        {
          "internalType": "uint256",
          "name": "tokenId",
          "type": "uint256"
        }
      ],
      "name": "safeTransferFrom",
      "outputs": [],
      "stateMutability": "nonpayable",
      "type": "function"
    },
    {
      "inputs": [
        {
          "internalType": "address",
          "name": "from",
          "type": "address"
        },
        {
          "internalType": "address",
          "name": "to",
          "type": "address"
        },
        {
          "internalType": "uint256",
          "name": "tokenId",
          "type": "uint256"
        },
        {
          "internalType": "bytes",
          "name": "_data",
          "type": "bytes"
        }
      ],
      "name": "safeTransferFrom",
      "outputs": [],
      "stateMutability": "nonpayable",
      "type": "function"
    },
    {
      "inputs": [
        {
          "internalType": "address",
          "name": "operator",
          "type": "address"
        },
        {
          "internalType": "bool",
          "name": "approved",
          "type": "bool"
        }
      ],
      "name": "setApprovalForAll",
      "outputs": [],
      "stateMutability": "nonpayable",
      "type": "function"
    },
    {
      "inputs": [
        {
          "internalType": "string",
          "name": "newUri",
          "type": "string"
        }
      ],
      "name": "setBaseURI",
      "outputs": [],
      "stateMutability": "nonpayable",
      "type": "function"
    },
    {
      "inputs": [
        {
          "internalType": "bytes32",
          "name": "merkleroot",
          "type": "bytes32"
        }
      ],
      "name": "setMerkleRoot",
      "outputs": [],
      "stateMutability": "nonpayable",
      "type": "function"
    },
    {
      "inputs": [
        {
          "internalType": "bytes4",
          "name": "interfaceId",
          "type": "bytes4"
        }
      ],
      "name": "supportsInterface",
      "outputs": [
        {
          "internalType": "bool",
          "name": "",
          "type": "bool"
        }
      ],
      "stateMutability": "view",
      "type": "function"
    },
    {
      "inputs": [],
      "name": "symbol",
      "outputs": [
        {
          "internalType": "string",
          "name": "",
          "type": "string"
        }
      ],
      "stateMutability": "view",
      "type": "function"
    },
    {
      "inputs": [],
      "name": "togglePreSale",
      "outputs": [],
      "stateMutability": "nonpayable",
      "type": "function"
    },
    {
      "inputs": [],
      "name": "togglePublicSale",
      "outputs": [],
      "stateMutability": "nonpayable",
      "type": "function"
    },
    {
      "inputs": [
        {
          "internalType": "uint256",
          "name": "tokenId",
          "type": "uint256"
        }
      ],
      "name": "tokenURI",
      "outputs": [
        {
          "internalType": "string",
          "name": "",
          "type": "string"
        }
      ],
      "stateMutability": "view",
      "type": "function"
    },
    {
      "inputs": [
        {
          "internalType": "address",
          "name": "_owner",
          "type": "address"
        },
        {
          "internalType": "uint256",
          "name": "startId",
          "type": "uint256"
        },
        {
          "internalType": "uint256",
          "name": "endId",
          "type": "uint256"
        }
      ],
      "name": "tokensOfOwner",
      "outputs": [
        {
          "internalType": "uint256[]",
          "name": "",
          "type": "uint256[]"
        }
      ],
      "stateMutability": "view",
      "type": "function"
    },
    {
      "inputs": [],
      "name": "totalSupply",
      "outputs": [
        {
          "internalType": "uint256",
          "name": "",
          "type": "uint256"
        }
      ],
      "stateMutability": "view",
      "type": "function"
    },
    {
      "inputs": [
        {
          "internalType": "address",
          "name": "from",
          "type": "address"
        },
        {
          "internalType": "address",
          "name": "to",
          "type": "address"
        },
        {
          "internalType": "uint256",
          "name": "tokenId",
          "type": "uint256"
        }
      ],
      "name": "transferFrom",
      "outputs": [],
      "stateMutability": "nonpayable",
      "type": "function"
    },
    {
      "inputs": [
        {
          "internalType": "address",
          "name": "newOwner",
          "type": "address"
        }
      ],
      "name": "transferOwnership",
      "outputs": [],
      "stateMutability": "nonpayable",
      "type": "function"
    },
    {
      "inputs": [],
      "name": "withdrawAll",
      "outputs": [],
      "stateMutability": "nonpayable",
      "type": "function"
    }
  ],
  "bytecode": "0x608060405260405180602001604052806000815250600990805190602001906200002b929190620001f6565b506000600a60006101000a81548160ff0219169083151502179055506000600a60016101000a81548160ff0219169083151502179055503480156200006f57600080fd5b5060405162004b9838038062004b9883398181016040528101906200009591906200032f565b82828160009080519060200190620000af929190620001f6565b508060019080519060200190620000c8929190620001f6565b505050620000eb620000df6200011260201b60201c565b6200011a60201b60201c565b80600881905550620001096007620001e060201b62001cf01760201c565b5050506200054b565b600033905090565b6000600660009054906101000a900473ffffffffffffffffffffffffffffffffffffffff16905081600660006101000a81548173ffffffffffffffffffffffffffffffffffffffff021916908373ffffffffffffffffffffffffffffffffffffffff1602179055508173ffffffffffffffffffffffffffffffffffffffff168173ffffffffffffffffffffffffffffffffffffffff167f8be0079c531659141344cd1fd0a4f28419497f9722a3daafe3b4186f6b6457e060405160405180910390a35050565b6001816000016000828254019250508190555050565b828054620002049062000456565b90600052602060002090601f01602090048101928262000228576000855562000274565b82601f106200024357805160ff191683800117855562000274565b8280016001018555821562000274579182015b828111156200027357825182559160200191906001019062000256565b5b50905062000283919062000287565b5090565b5b80821115620002a257600081600090555060010162000288565b5090565b6000620002bd620002b784620003e0565b620003b7565b905082815260208101848484011115620002d657600080fd5b620002e384828562000420565b509392505050565b600081519050620002fc8162000531565b92915050565b600082601f8301126200031457600080fd5b815162000326848260208601620002a6565b91505092915050565b6000806000606084860312156200034557600080fd5b600084015167ffffffffffffffff8111156200036057600080fd5b6200036e8682870162000302565b935050602084015167ffffffffffffffff8111156200038c57600080fd5b6200039a8682870162000302565b9250506040620003ad86828701620002eb565b9150509250925092565b6000620003c3620003d6565b9050620003d182826200048c565b919050565b6000604051905090565b600067ffffffffffffffff821115620003fe57620003fd620004f1565b5b620004098262000520565b9050602081019050919050565b6000819050919050565b60005b838110156200044057808201518184015260208101905062000423565b8381111562000450576000848401525b50505050565b600060028204905060018216806200046f57607f821691505b60208210811415620004865762000485620004c2565b5b50919050565b620004978262000520565b810181811067ffffffffffffffff82111715620004b957620004b8620004f1565b5b80604052505050565b7f4e487b7100000000000000000000000000000000000000000000000000000000600052602260045260246000fd5b7f4e487b7100000000000000000000000000000000000000000000000000000000600052604160045260246000fd5b6000601f19601f8301169050919050565b6200053c8162000416565b81146200054857600080fd5b50565b61463d806200055b6000396000f3fe6080604052600436106101e35760003560e01c80638da5cb5b11610102578063c839fe9411610095578063e985e9c511610064578063e985e9c51461069e578063ebf0c717146106db578063f19e75d414610706578063f2fde38b1461072f576101e3565b8063c839fe94146105f6578063c87b56dd14610633578063ca3cb52214610670578063e222c7f914610687576101e3565b8063a22cb465116100d1578063a22cb4651461055d578063b3ab66b014610586578063b88d4fde146105a2578063c002d23d146105cb576101e3565b80638da5cb5b146104c0578063902d55a5146104eb57806393f7c1011461051657806395d89b4114610532576101e3565b806355f804b31161017a57806376d02b711161014957806376d02b711461042a5780637cb647591461045557806382d29a0f1461047e578063853828b6146104a9576101e3565b806355f804b3146103705780636352211e1461039957806370a08231146103d6578063715018a614610413576101e3565b806318160ddd116101b657806318160ddd146102b65780631d0d1257146102e157806323b872dd1461031e57806342842e0e14610347576101e3565b806301ffc9a7146101e857806306fdde0314610225578063081812fc14610250578063095ea7b31461028d575b600080fd5b3480156101f457600080fd5b5061020f600480360381019061020a91906130d5565b610758565b60405161021c9190613777565b60405180910390f35b34801561023157600080fd5b5061023a61083a565b60405161024791906137ad565b60405180910390f35b34801561025c57600080fd5b5061027760048036038101906102729190613168565b6108cc565b60405161028491906136ee565b60405180910390f35b34801561029957600080fd5b506102b460048036038101906102af9190612fa1565b610951565b005b3480156102c257600080fd5b506102cb610a69565b6040516102d89190613aef565b60405180910390f35b3480156102ed57600080fd5b5061030860048036038101906103039190612e36565b610a86565b6040516103159190613aef565b60405180910390f35b34801561032a57600080fd5b5061034560048036038101906103409190612e9b565b610acf565b005b34801561035357600080fd5b5061036e60048036038101906103699190612e9b565b610b2f565b005b34801561037c57600080fd5b5061039760048036038101906103929190613127565b610b4f565b005b3480156103a557600080fd5b506103c060048036038101906103bb9190613168565b610be5565b6040516103cd91906136ee565b60405180910390f35b3480156103e257600080fd5b506103fd60048036038101906103f89190612e36565b610c97565b60405161040a9190613aef565b60405180910390f35b34801561041f57600080fd5b50610428610d4f565b005b34801561043657600080fd5b5061043f610dd7565b60405161044c9190613777565b60405180910390f35b34801561046157600080fd5b5061047c600480360381019061047791906130ac565b610dea565b005b34801561048a57600080fd5b50610493610e70565b6040516104a09190613777565b60405180910390f35b3480156104b557600080fd5b506104be610e83565b005b3480156104cc57600080fd5b506104d5610f25565b6040516104e291906136ee565b60405180910390f35b3480156104f757600080fd5b50610500610f4f565b60405161050d9190613aef565b60405180910390f35b610530600480360381019061052b919061302c565b610f55565b005b34801561053e57600080fd5b506105476112fe565b60405161055491906137ad565b60405180910390f35b34801561056957600080fd5b50610584600480360381019061057f9190612f65565b611390565b005b6105a0600480360381019061059b9190613168565b6113a6565b005b3480156105ae57600080fd5b506105c960048036038101906105c49190612eea565b611624565b005b3480156105d757600080fd5b506105e0611686565b6040516105ed9190613aef565b60405180910390f35b34801561060257600080fd5b5061061d60048036038101906106189190612fdd565b611691565b60405161062a9190613755565b60405180910390f35b34801561063f57600080fd5b5061065a60048036038101906106559190613168565b611863565b60405161066791906137ad565b60405180910390f35b34801561067c57600080fd5b5061068561190a565b005b34801561069357600080fd5b5061069c6119b2565b005b3480156106aa57600080fd5b506106c560048036038101906106c09190612e5f565b611a5a565b6040516106d29190613777565b60405180910390f35b3480156106e757600080fd5b506106f0611aee565b6040516106fd9190613792565b60405180910390f35b34801561071257600080fd5b5061072d60048036038101906107289190613168565b611af4565b005b34801561073b57600080fd5b5061075660048036038101906107519190612e36565b611bf8565b005b60007f80ac58cd000000000000000000000000000000000000000000000000000000007bffffffffffffffffffffffffffffffffffffffffffffffffffffffff1916827bffffffffffffffffffffffffffffffffffffffffffffffffffffffff1916148061082357507f5b5e139f000000000000000000000000000000000000000000000000000000007bffffffffffffffffffffffffffffffffffffffffffffffffffffffff1916827bffffffffffffffffffffffffffffffffffffffffffffffffffffffff1916145b80610833575061083282611d06565b5b9050919050565b60606000805461084990613ded565b80601f016020809104026020016040519081016040528092919081815260200182805461087590613ded565b80156108c25780601f10610897576101008083540402835291602001916108c2565b820191906000526020600020905b8154815290600101906020018083116108a557829003601f168201915b5050505050905090565b60006108d782611d70565b610916576040517f08c379a000000000000000000000000000000000000000000000000000000000815260040161090d9061398f565b60405180910390fd5b6004600083815260200190815260200160002060009054906101000a900473ffffffffffffffffffffffffffffffffffffffff169050919050565b600061095c82610be5565b90508073ffffffffffffffffffffffffffffffffffffffff168373ffffffffffffffffffffffffffffffffffffffff1614156109cd576040517f08c379a00000000000000000000000000000000000000000000000000000000081526004016109c490613a4f565b60405180910390fd5b8073ffffffffffffffffffffffffffffffffffffffff166109ec611ddc565b73ffffffffffffffffffffffffffffffffffffffff161480610a1b5750610a1a81610a15611ddc565b611a5a565b5b610a5a576040517f08c379a0000000000000000000000000000000000000000000000000000000008152600401610a519061390f565b60405180910390fd5b610a648383611de4565b505050565b60006001610a776007611e9d565b610a819190613cf9565b905090565b6000600b60008373ffffffffffffffffffffffffffffffffffffffff1673ffffffffffffffffffffffffffffffffffffffff168152602001908152602001600020549050919050565b610ae0610ada611ddc565b82611eab565b610b1f576040517f08c379a0000000000000000000000000000000000000000000000000000000008152600401610b1690613acf565b60405180910390fd5b610b2a838383611f89565b505050565b610b4a83838360405180602001604052806000815250611624565b505050565b610b57611ddc565b73ffffffffffffffffffffffffffffffffffffffff16610b75610f25565b73ffffffffffffffffffffffffffffffffffffffff1614610bcb576040517f08c379a0000000000000000000000000000000000000000000000000000000008152600401610bc2906139cf565b60405180910390fd5b8060099080519060200190610be1929190612bfb565b5050565b6000806002600084815260200190815260200160002060009054906101000a900473ffffffffffffffffffffffffffffffffffffffff169050600073ffffffffffffffffffffffffffffffffffffffff168173ffffffffffffffffffffffffffffffffffffffff161415610c8e576040517f08c379a0000000000000000000000000000000000000000000000000000000008152600401610c859061394f565b60405180910390fd5b80915050919050565b60008073ffffffffffffffffffffffffffffffffffffffff168273ffffffffffffffffffffffffffffffffffffffff161415610d08576040517f08c379a0000000000000000000000000000000000000000000000000000000008152600401610cff9061392f565b60405180910390fd5b600360008373ffffffffffffffffffffffffffffffffffffffff1673ffffffffffffffffffffffffffffffffffffffff168152602001908152602001600020549050919050565b610d57611ddc565b73ffffffffffffffffffffffffffffffffffffffff16610d75610f25565b73ffffffffffffffffffffffffffffffffffffffff1614610dcb576040517f08c379a0000000000000000000000000000000000000000000000000000000008152600401610dc2906139cf565b60405180910390fd5b610dd560006121f0565b565b600a60019054906101000a900460ff1681565b610df2611ddc565b73ffffffffffffffffffffffffffffffffffffffff16610e10610f25565b73ffffffffffffffffffffffffffffffffffffffff1614610e66576040517f08c379a0000000000000000000000000000000000000000000000000000000008152600401610e5d906139cf565b60405180910390fd5b8060088190555050565b600a60009054906101000a900460ff1681565b610e8b611ddc565b73ffffffffffffffffffffffffffffffffffffffff16610ea9610f25565b73ffffffffffffffffffffffffffffffffffffffff1614610eff576040517f08c379a0000000000000000000000000000000000000000000000000000000008152600401610ef6906139cf565b60405180910390fd5b600047905060008111610f1157600080fd5b610f22610f1c610f25565b476122b6565b50565b6000600660009054906101000a900473ffffffffffffffffffffffffffffffffffffffff16905090565b61270f81565b3273ffffffffffffffffffffffffffffffffffffffff163373ffffffffffffffffffffffffffffffffffffffff1614610fc3576040517f08c379a0000000000000000000000000000000000000000000000000000000008152600401610fba90613a8f565b60405180910390fd5b8473ffffffffffffffffffffffffffffffffffffffff163373ffffffffffffffffffffffffffffffffffffffff1614611031576040517f08c379a0000000000000000000000000000000000000000000000000000000008152600401611028906139af565b60405180910390fd5b600a60009054906101000a900460ff16611080576040517f08c379a000000000000000000000000000000000000000000000000000000000815260040161107790613a6f565b60405180910390fd5b662386f26fc10000846110939190613c9f565b3410156110d5576040517f08c379a00000000000000000000000000000000000000000000000000000000081526004016110cc906137cf565b60405180910390fd5b6000336040516020016110e8919061369a565b60405160208183030381529060405280519060200120905061114e838380806020026020016040519081016040528093929190818152602001838360200280828437600081840152601f19601f8201169050808301925050505050505060085483612367565b61118d576040517f08c379a0000000000000000000000000000000000000000000000000000000008152600401611184906139ef565b60405180910390fd5b60006111996007611e9d565b905061270f86826111aa9190613c18565b11156111eb576040517f08c379a00000000000000000000000000000000000000000000000000000000081526004016111e2906138cf565b60405180910390fd5b8486600b60003373ffffffffffffffffffffffffffffffffffffffff1673ffffffffffffffffffffffffffffffffffffffff168152602001908152602001600020546112379190613c18565b1115611278576040517f08c379a000000000000000000000000000000000000000000000000000000000815260040161126f9061386f565b60405180910390fd5b85600b60003373ffffffffffffffffffffffffffffffffffffffff1673ffffffffffffffffffffffffffffffffffffffff16815260200190815260200160002060008282546112c79190613c18565b9250508190555060005b868110156112f4576112e161237e565b80806112ec90613e50565b9150506112d1565b5050505050505050565b60606001805461130d90613ded565b80601f016020809104026020016040519081016040528092919081815260200182805461133990613ded565b80156113865780601f1061135b57610100808354040283529160200191611386565b820191906000526020600020905b81548152906001019060200180831161136957829003601f168201915b5050505050905090565b6113a261139b611ddc565b83836123a3565b5050565b3273ffffffffffffffffffffffffffffffffffffffff163373ffffffffffffffffffffffffffffffffffffffff1614611414576040517f08c379a000000000000000000000000000000000000000000000000000000000815260040161140b90613a8f565b60405180910390fd5b600a60019054906101000a900460ff16611463576040517f08c379a000000000000000000000000000000000000000000000000000000000815260040161145a90613a2f565b60405180910390fd5b662386f26fc10000816114769190613c9f565b3410156114b8576040517f08c379a00000000000000000000000000000000000000000000000000000000081526004016114af906137cf565b60405180910390fd5b60006114c46007611e9d565b905061270f82826114d59190613c18565b10611515576040517f08c379a000000000000000000000000000000000000000000000000000000000815260040161150c906138cf565b60405180910390fd5b600282600b60003373ffffffffffffffffffffffffffffffffffffffff1673ffffffffffffffffffffffffffffffffffffffff168152602001908152602001600020546115629190613c18565b11156115a3576040517f08c379a000000000000000000000000000000000000000000000000000000000815260040161159a9061386f565b60405180910390fd5b81600b60003373ffffffffffffffffffffffffffffffffffffffff1673ffffffffffffffffffffffffffffffffffffffff16815260200190815260200160002060008282546115f29190613c18565b9250508190555060005b8281101561161f5761160c61237e565b808061161790613e50565b9150506115fc565b505050565b61163561162f611ddc565b83611eab565b611674576040517f08c379a000000000000000000000000000000000000000000000000000000000815260040161166b90613acf565b60405180910390fd5b61168084848484612510565b50505050565b662386f26fc1000081565b6060600061169e85610c97565b9050600081141561172157600067ffffffffffffffff8111156116ea577f4e487b7100000000000000000000000000000000000000000000000000000000600052604160045260246000fd5b6040519080825280602002602001820160405280156117185781602001602082028036833780820191505090505b5091505061185c565b60008167ffffffffffffffff811115611763577f4e487b7100000000000000000000000000000000000000000000000000000000600052604160045260246000fd5b6040519080825280602002602001820160405280156117915781602001602082028036833780820191505090505b5090506000808690505b8581101561185457838214156117b057611854565b8773ffffffffffffffffffffffffffffffffffffffff166117d082610be5565b73ffffffffffffffffffffffffffffffffffffffff1614156118415780838381518110611826577f4e487b7100000000000000000000000000000000000000000000000000000000600052603260045260246000fd5b602002602001018181525050818061183d90613e50565b9250505b808061184c90613e50565b91505061179b565b508193505050505b9392505050565b606061186e82611d70565b6118ad576040517f08c379a00000000000000000000000000000000000000000000000000000000081526004016118a490613a0f565b60405180910390fd5b60006118b761256c565b905060008151116118d75760405180602001604052806000815250611902565b806118e1846125fe565b6040516020016118f29291906136b5565b6040516020818303038152906040525b915050919050565b611912611ddc565b73ffffffffffffffffffffffffffffffffffffffff16611930610f25565b73ffffffffffffffffffffffffffffffffffffffff1614611986576040517f08c379a000000000000000000000000000000000000000000000000000000000815260040161197d906139cf565b60405180910390fd5b600a60009054906101000a900460ff1615600a60006101000a81548160ff021916908315150217905550565b6119ba611ddc565b73ffffffffffffffffffffffffffffffffffffffff166119d8610f25565b73ffffffffffffffffffffffffffffffffffffffff1614611a2e576040517f08c379a0000000000000000000000000000000000000000000000000000000008152600401611a25906139cf565b60405180910390fd5b600a60019054906101000a900460ff1615600a60016101000a81548160ff021916908315150217905550565b6000600560008473ffffffffffffffffffffffffffffffffffffffff1673ffffffffffffffffffffffffffffffffffffffff16815260200190815260200160002060008373ffffffffffffffffffffffffffffffffffffffff1673ffffffffffffffffffffffffffffffffffffffff16815260200190815260200160002060009054906101000a900460ff16905092915050565b60085481565b611afc611ddc565b73ffffffffffffffffffffffffffffffffffffffff16611b1a610f25565b73ffffffffffffffffffffffffffffffffffffffff1614611b70576040517f08c379a0000000000000000000000000000000000000000000000000000000008152600401611b67906139cf565b60405180910390fd5b6000611b7c6007611e9d565b905061270f8282611b8d9190613c18565b10611bcd576040517f08c379a0000000000000000000000000000000000000000000000000000000008152600401611bc4906138cf565b60405180910390fd5b60005b82811015611bf357611be061237e565b8080611beb90613e50565b915050611bd0565b505050565b611c00611ddc565b73ffffffffffffffffffffffffffffffffffffffff16611c1e610f25565b73ffffffffffffffffffffffffffffffffffffffff1614611c74576040517f08c379a0000000000000000000000000000000000000000000000000000000008152600401611c6b906139cf565b60405180910390fd5b600073ffffffffffffffffffffffffffffffffffffffff168173ffffffffffffffffffffffffffffffffffffffff161415611ce4576040517f08c379a0000000000000000000000000000000000000000000000000000000008152600401611cdb9061380f565b60405180910390fd5b611ced816121f0565b50565b6001816000016000828254019250508190555050565b60007f01ffc9a7000000000000000000000000000000000000000000000000000000007bffffffffffffffffffffffffffffffffffffffffffffffffffffffff1916827bffffffffffffffffffffffffffffffffffffffffffffffffffffffff1916149050919050565b60008073ffffffffffffffffffffffffffffffffffffffff166002600084815260200190815260200160002060009054906101000a900473ffffffffffffffffffffffffffffffffffffffff1673ffffffffffffffffffffffffffffffffffffffff1614159050919050565b600033905090565b816004600083815260200190815260200160002060006101000a81548173ffffffffffffffffffffffffffffffffffffffff021916908373ffffffffffffffffffffffffffffffffffffffff160217905550808273ffffffffffffffffffffffffffffffffffffffff16611e5783610be5565b73ffffffffffffffffffffffffffffffffffffffff167f8c5be1e5ebec7d5bd14f71427d1e84f3dd0314c0f7b2291e5b200ac8c7c3b92560405160405180910390a45050565b600081600001549050919050565b6000611eb682611d70565b611ef5576040517f08c379a0000000000000000000000000000000000000000000000000000000008152600401611eec906138ef565b60405180910390fd5b6000611f0083610be5565b90508073ffffffffffffffffffffffffffffffffffffffff168473ffffffffffffffffffffffffffffffffffffffff161480611f6f57508373ffffffffffffffffffffffffffffffffffffffff16611f57846108cc565b73ffffffffffffffffffffffffffffffffffffffff16145b80611f805750611f7f8185611a5a565b5b91505092915050565b8273ffffffffffffffffffffffffffffffffffffffff16611fa982610be5565b73ffffffffffffffffffffffffffffffffffffffff1614611fff576040517f08c379a0000000000000000000000000000000000000000000000000000000008152600401611ff69061382f565b60405180910390fd5b600073ffffffffffffffffffffffffffffffffffffffff168273ffffffffffffffffffffffffffffffffffffffff16141561206f576040517f08c379a00000000000000000000000000000000000000000000000000000000081526004016120669061388f565b60405180910390fd5b61207a8383836127ab565b612085600082611de4565b6001600360008573ffffffffffffffffffffffffffffffffffffffff1673ffffffffffffffffffffffffffffffffffffffff16815260200190815260200160002060008282546120d59190613cf9565b925050819055506001600360008473ffffffffffffffffffffffffffffffffffffffff1673ffffffffffffffffffffffffffffffffffffffff168152602001908152602001600020600082825461212c9190613c18565b92505081905550816002600083815260200190815260200160002060006101000a81548173ffffffffffffffffffffffffffffffffffffffff021916908373ffffffffffffffffffffffffffffffffffffffff160217905550808273ffffffffffffffffffffffffffffffffffffffff168473ffffffffffffffffffffffffffffffffffffffff167fddf252ad1be2c89b69c2b068fc378daa952ba7f163c4a11628f55a4df523b3ef60405160405180910390a46121eb8383836127b0565b505050565b6000600660009054906101000a900473ffffffffffffffffffffffffffffffffffffffff16905081600660006101000a81548173ffffffffffffffffffffffffffffffffffffffff021916908373ffffffffffffffffffffffffffffffffffffffff1602179055508173ffffffffffffffffffffffffffffffffffffffff168173ffffffffffffffffffffffffffffffffffffffff167f8be0079c531659141344cd1fd0a4f28419497f9722a3daafe3b4186f6b6457e060405160405180910390a35050565b60008273ffffffffffffffffffffffffffffffffffffffff16826040516122dc906136d9565b60006040518083038185875af1925050503d8060008114612319576040519150601f19603f3d011682016040523d82523d6000602084013e61231e565b606091505b5050905080612362576040517f08c379a000000000000000000000000000000000000000000000000000000000815260040161235990613aaf565b60405180910390fd5b505050565b60008261237485846127b5565b1490509392505050565b600061238a6007611e9d565b90506123966007611cf0565b6123a03382612850565b50565b8173ffffffffffffffffffffffffffffffffffffffff168373ffffffffffffffffffffffffffffffffffffffff161415612412576040517f08c379a0000000000000000000000000000000000000000000000000000000008152600401612409906138af565b60405180910390fd5b80600560008573ffffffffffffffffffffffffffffffffffffffff1673ffffffffffffffffffffffffffffffffffffffff16815260200190815260200160002060008473ffffffffffffffffffffffffffffffffffffffff1673ffffffffffffffffffffffffffffffffffffffff16815260200190815260200160002060006101000a81548160ff0219169083151502179055508173ffffffffffffffffffffffffffffffffffffffff168373ffffffffffffffffffffffffffffffffffffffff167f17307eab39ab6107e8899845ad3d59bd9653f200f220920489ca2b5937696c31836040516125039190613777565b60405180910390a3505050565b61251b848484611f89565b61252784848484612a2a565b612566576040517f08c379a000000000000000000000000000000000000000000000000000000000815260040161255d906137ef565b60405180910390fd5b50505050565b60606009805461257b90613ded565b80601f01602080910402602001604051908101604052809291908181526020018280546125a790613ded565b80156125f45780601f106125c9576101008083540402835291602001916125f4565b820191906000526020600020905b8154815290600101906020018083116125d757829003601f168201915b5050505050905090565b60606000821415612646576040518060400160405280600181526020017f300000000000000000000000000000000000000000000000000000000000000081525090506127a6565b600082905060005b6000821461267857808061266190613e50565b915050600a826126719190613c6e565b915061264e565b60008167ffffffffffffffff8111156126ba577f4e487b7100000000000000000000000000000000000000000000000000000000600052604160045260246000fd5b6040519080825280601f01601f1916602001820160405280156126ec5781602001600182028036833780820191505090505b5090505b6000851461279f576001826127059190613cf9565b9150600a856127149190613ebd565b60306127209190613c18565b60f81b81838151811061275c577f4e487b7100000000000000000000000000000000000000000000000000000000600052603260045260246000fd5b60200101907effffffffffffffffffffffffffffffffffffffffffffffffffffffffffffff1916908160001a905350600a856127989190613c6e565b94506126f0565b8093505050505b919050565b505050565b505050565b60008082905060005b8451811015612845576000858281518110612802577f4e487b7100000000000000000000000000000000000000000000000000000000600052603260045260246000fd5b602002602001015190508083116128245761281d8382612bc1565b9250612831565b61282e8184612bc1565b92505b50808061283d90613e50565b9150506127be565b508091505092915050565b600073ffffffffffffffffffffffffffffffffffffffff168273ffffffffffffffffffffffffffffffffffffffff1614156128c0576040517f08c379a00000000000000000000000000000000000000000000000000000000081526004016128b79061396f565b60405180910390fd5b6128c981611d70565b15612909576040517f08c379a00000000000000000000000000000000000000000000000000000000081526004016129009061384f565b60405180910390fd5b612915600083836127ab565b6001600360008473ffffffffffffffffffffffffffffffffffffffff1673ffffffffffffffffffffffffffffffffffffffff16815260200190815260200160002060008282546129659190613c18565b92505081905550816002600083815260200190815260200160002060006101000a81548173ffffffffffffffffffffffffffffffffffffffff021916908373ffffffffffffffffffffffffffffffffffffffff160217905550808273ffffffffffffffffffffffffffffffffffffffff16600073ffffffffffffffffffffffffffffffffffffffff167fddf252ad1be2c89b69c2b068fc378daa952ba7f163c4a11628f55a4df523b3ef60405160405180910390a4612a26600083836127b0565b5050565b6000612a4b8473ffffffffffffffffffffffffffffffffffffffff16612bd8565b15612bb4578373ffffffffffffffffffffffffffffffffffffffff1663150b7a02612a74611ddc565b8786866040518563ffffffff1660e01b8152600401612a969493929190613709565b602060405180830381600087803b158015612ab057600080fd5b505af1925050508015612ae157506040513d601f19601f82011682018060405250810190612ade91906130fe565b60015b612b64573d8060008114612b11576040519150601f19603f3d011682016040523d82523d6000602084013e612b16565b606091505b50600081511415612b5c576040517f08c379a0000000000000000000000000000000000000000000000000000000008152600401612b53906137ef565b60405180910390fd5b805181602001fd5b63150b7a0260e01b7bffffffffffffffffffffffffffffffffffffffffffffffffffffffff1916817bffffffffffffffffffffffffffffffffffffffffffffffffffffffff191614915050612bb9565b600190505b949350505050565b600082600052816020526040600020905092915050565b6000808273ffffffffffffffffffffffffffffffffffffffff163b119050919050565b828054612c0790613ded565b90600052602060002090601f016020900481019282612c295760008555612c70565b82601f10612c4257805160ff1916838001178555612c70565b82800160010185558215612c70579182015b82811115612c6f578251825591602001919060010190612c54565b5b509050612c7d9190612c81565b5090565b5b80821115612c9a576000816000905550600101612c82565b5090565b6000612cb1612cac84613b2f565b613b0a565b905082815260208101848484011115612cc957600080fd5b612cd4848285613dab565b509392505050565b6000612cef612cea84613b60565b613b0a565b905082815260208101848484011115612d0757600080fd5b612d12848285613dab565b509392505050565b600081359050612d2981614594565b92915050565b60008083601f840112612d4157600080fd5b8235905067ffffffffffffffff811115612d5a57600080fd5b602083019150836020820283011115612d7257600080fd5b9250929050565b600081359050612d88816145ab565b92915050565b600081359050612d9d816145c2565b92915050565b600081359050612db2816145d9565b92915050565b600081519050612dc7816145d9565b92915050565b600082601f830112612dde57600080fd5b8135612dee848260208601612c9e565b91505092915050565b600082601f830112612e0857600080fd5b8135612e18848260208601612cdc565b91505092915050565b600081359050612e30816145f0565b92915050565b600060208284031215612e4857600080fd5b6000612e5684828501612d1a565b91505092915050565b60008060408385031215612e7257600080fd5b6000612e8085828601612d1a565b9250506020612e9185828601612d1a565b9150509250929050565b600080600060608486031215612eb057600080fd5b6000612ebe86828701612d1a565b9350506020612ecf86828701612d1a565b9250506040612ee086828701612e21565b9150509250925092565b60008060008060808587031215612f0057600080fd5b6000612f0e87828801612d1a565b9450506020612f1f87828801612d1a565b9350506040612f3087828801612e21565b925050606085013567ffffffffffffffff811115612f4d57600080fd5b612f5987828801612dcd565b91505092959194509250565b60008060408385031215612f7857600080fd5b6000612f8685828601612d1a565b9250506020612f9785828601612d79565b9150509250929050565b60008060408385031215612fb457600080fd5b6000612fc285828601612d1a565b9250506020612fd385828601612e21565b9150509250929050565b600080600060608486031215612ff257600080fd5b600061300086828701612d1a565b935050602061301186828701612e21565b925050604061302286828701612e21565b9150509250925092565b60008060008060006080868803121561304457600080fd5b600061305288828901612d1a565b955050602061306388828901612e21565b945050604061307488828901612e21565b935050606086013567ffffffffffffffff81111561309157600080fd5b61309d88828901612d2f565b92509250509295509295909350565b6000602082840312156130be57600080fd5b60006130cc84828501612d8e565b91505092915050565b6000602082840312156130e757600080fd5b60006130f584828501612da3565b91505092915050565b60006020828403121561311057600080fd5b600061311e84828501612db8565b91505092915050565b60006020828403121561313957600080fd5b600082013567ffffffffffffffff81111561315357600080fd5b61315f84828501612df7565b91505092915050565b60006020828403121561317a57600080fd5b600061318884828501612e21565b91505092915050565b600061319d838361367c565b60208301905092915050565b6131b281613d2d565b82525050565b6131c96131c482613d2d565b613e99565b82525050565b60006131da82613ba1565b6131e48185613bcf565b93506131ef83613b91565b8060005b838110156132205781516132078882613191565b975061321283613bc2565b9250506001810190506131f3565b5085935050505092915050565b61323681613d3f565b82525050565b61324581613d4b565b82525050565b600061325682613bac565b6132608185613be0565b9350613270818560208601613dba565b61327981613faa565b840191505092915050565b600061328f82613bb7565b6132998185613bfc565b93506132a9818560208601613dba565b6132b281613faa565b840191505092915050565b60006132c882613bb7565b6132d28185613c0d565b93506132e2818560208601613dba565b80840191505092915050565b60006132fb601683613bfc565b915061330682613fc8565b602082019050919050565b600061331e603283613bfc565b915061332982613ff1565b604082019050919050565b6000613341602683613bfc565b915061334c82614040565b604082019050919050565b6000613364602583613bfc565b915061336f8261408f565b604082019050919050565b6000613387601c83613bfc565b9150613392826140de565b602082019050919050565b60006133aa601183613bfc565b91506133b582614107565b602082019050919050565b60006133cd602483613bfc565b91506133d882614130565b604082019050919050565b60006133f0601983613bfc565b91506133fb8261417f565b602082019050919050565b6000613413601483613bfc565b915061341e826141a8565b602082019050919050565b6000613436602c83613bfc565b9150613441826141d1565b604082019050919050565b6000613459603883613bfc565b915061346482614220565b604082019050919050565b600061347c602a83613bfc565b91506134878261426f565b604082019050919050565b600061349f602983613bfc565b91506134aa826142be565b604082019050919050565b60006134c2602083613bfc565b91506134cd8261430d565b602082019050919050565b60006134e5602c83613bfc565b91506134f082614336565b604082019050919050565b6000613508600b83613bfc565b915061351382614385565b602082019050919050565b600061352b602083613bfc565b9150613536826143ae565b602082019050919050565b600061354e601483613bfc565b9150613559826143d7565b602082019050919050565b6000613571602f83613bfc565b915061357c82614400565b604082019050919050565b6000613594601483613bfc565b915061359f8261444f565b602082019050919050565b60006135b7602183613bfc565b91506135c282614478565b604082019050919050565b60006135da601883613bfc565b91506135e5826144c7565b602082019050919050565b60006135fd601283613bfc565b9150613608826144f0565b602082019050919050565b6000613620600083613bf1565b915061362b82614519565b600082019050919050565b6000613643601083613bfc565b915061364e8261451c565b602082019050919050565b6000613666603183613bfc565b915061367182614545565b604082019050919050565b61368581613da1565b82525050565b61369481613da1565b82525050565b60006136a682846131b8565b60148201915081905092915050565b60006136c182856132bd565b91506136cd82846132bd565b91508190509392505050565b60006136e482613613565b9150819050919050565b600060208201905061370360008301846131a9565b92915050565b600060808201905061371e60008301876131a9565b61372b60208301866131a9565b613738604083018561368b565b818103606083015261374a818461324b565b905095945050505050565b6000602082019050818103600083015261376f81846131cf565b905092915050565b600060208201905061378c600083018461322d565b92915050565b60006020820190506137a7600083018461323c565b92915050565b600060208201905081810360008301526137c78184613284565b905092915050565b600060208201905081810360008301526137e8816132ee565b9050919050565b6000602082019050818103600083015261380881613311565b9050919050565b6000602082019050818103600083015261382881613334565b9050919050565b6000602082019050818103600083015261384881613357565b9050919050565b600060208201905081810360008301526138688161337a565b9050919050565b600060208201905081810360008301526138888161339d565b9050919050565b600060208201905081810360008301526138a8816133c0565b9050919050565b600060208201905081810360008301526138c8816133e3565b9050919050565b600060208201905081810360008301526138e881613406565b9050919050565b6000602082019050818103600083015261390881613429565b9050919050565b600060208201905081810360008301526139288161344c565b9050919050565b600060208201905081810360008301526139488161346f565b9050919050565b6000602082019050818103600083015261396881613492565b9050919050565b60006020820190508181036000830152613988816134b5565b9050919050565b600060208201905081810360008301526139a8816134d8565b9050919050565b600060208201905081810360008301526139c8816134fb565b9050919050565b600060208201905081810360008301526139e88161351e565b9050919050565b60006020820190508181036000830152613a0881613541565b9050919050565b60006020820190508181036000830152613a2881613564565b9050919050565b60006020820190508181036000830152613a4881613587565b9050919050565b60006020820190508181036000830152613a68816135aa565b9050919050565b60006020820190508181036000830152613a88816135cd565b9050919050565b60006020820190508181036000830152613aa8816135f0565b9050919050565b60006020820190508181036000830152613ac881613636565b9050919050565b60006020820190508181036000830152613ae881613659565b9050919050565b6000602082019050613b04600083018461368b565b92915050565b6000613b14613b25565b9050613b208282613e1f565b919050565b6000604051905090565b600067ffffffffffffffff821115613b4a57613b49613f7b565b5b613b5382613faa565b9050602081019050919050565b600067ffffffffffffffff821115613b7b57613b7a613f7b565b5b613b8482613faa565b9050602081019050919050565b6000819050602082019050919050565b600081519050919050565b600081519050919050565b600081519050919050565b6000602082019050919050565b600082825260208201905092915050565b600082825260208201905092915050565b600081905092915050565b600082825260208201905092915050565b600081905092915050565b6000613c2382613da1565b9150613c2e83613da1565b9250827fffffffffffffffffffffffffffffffffffffffffffffffffffffffffffffffff03821115613c6357613c62613eee565b5b828201905092915050565b6000613c7982613da1565b9150613c8483613da1565b925082613c9457613c93613f1d565b5b828204905092915050565b6000613caa82613da1565b9150613cb583613da1565b9250817fffffffffffffffffffffffffffffffffffffffffffffffffffffffffffffffff0483118215151615613cee57613ced613eee565b5b828202905092915050565b6000613d0482613da1565b9150613d0f83613da1565b925082821015613d2257613d21613eee565b5b828203905092915050565b6000613d3882613d81565b9050919050565b60008115159050919050565b6000819050919050565b60007fffffffff0000000000000000000000000000000000000000000000000000000082169050919050565b600073ffffffffffffffffffffffffffffffffffffffff82169050919050565b6000819050919050565b82818337600083830152505050565b60005b83811015613dd8578082015181840152602081019050613dbd565b83811115613de7576000848401525b50505050565b60006002820490506001821680613e0557607f821691505b60208210811415613e1957613e18613f4c565b5b50919050565b613e2882613faa565b810181811067ffffffffffffffff82111715613e4757613e46613f7b565b5b80604052505050565b6000613e5b82613da1565b91507fffffffffffffffffffffffffffffffffffffffffffffffffffffffffffffffff821415613e8e57613e8d613eee565b5b600182019050919050565b6000613ea482613eab565b9050919050565b6000613eb682613fbb565b9050919050565b6000613ec882613da1565b9150613ed383613da1565b925082613ee357613ee2613f1d565b5b828206905092915050565b7f4e487b7100000000000000000000000000000000000000000000000000000000600052601160045260246000fd5b7f4e487b7100000000000000000000000000000000000000000000000000000000600052601260045260246000fd5b7f4e487b7100000000000000000000000000000000000000000000000000000000600052602260045260246000fd5b7f4e487b7100000000000000000000000000000000000000000000000000000000600052604160045260246000fd5b6000601f19601f8301169050919050565b60008160601b9050919050565b7f4e6f7420656e6f756768206574686572732073656e7400000000000000000000600082015250565b7f4552433732313a207472616e7366657220746f206e6f6e20455243373231526560008201527f63656976657220696d706c656d656e7465720000000000000000000000000000602082015250565b7f4f776e61626c653a206e6577206f776e657220697320746865207a65726f206160008201527f6464726573730000000000000000000000000000000000000000000000000000602082015250565b7f4552433732313a207472616e736665722066726f6d20696e636f72726563742060008201527f6f776e6572000000000000000000000000000000000000000000000000000000602082015250565b7f4552433732313a20746f6b656e20616c7265616479206d696e74656400000000600082015250565b7f4578636565647320616c6c6f77616e6365000000000000000000000000000000600082015250565b7f4552433732313a207472616e7366657220746f20746865207a65726f2061646460008201527f7265737300000000000000000000000000000000000000000000000000000000602082015250565b7f4552433732313a20617070726f766520746f2063616c6c657200000000000000600082015250565b7f4578636565647320746f74616c20737570706c79000000000000000000000000600082015250565b7f4552433732313a206f70657261746f7220717565727920666f72206e6f6e657860008201527f697374656e7420746f6b656e0000000000000000000000000000000000000000602082015250565b7f4552433732313a20617070726f76652063616c6c6572206973206e6f74206f7760008201527f6e6572206e6f7220617070726f76656420666f7220616c6c0000000000000000602082015250565b7f4552433732313a2062616c616e636520717565727920666f7220746865207a6560008201527f726f206164647265737300000000000000000000000000000000000000000000602082015250565b7f4552433732313a206f776e657220717565727920666f72206e6f6e657869737460008201527f656e7420746f6b656e0000000000000000000000000000000000000000000000602082015250565b7f4552433732313a206d696e7420746f20746865207a65726f2061646472657373600082015250565b7f4552433732313a20617070726f76656420717565727920666f72206e6f6e657860008201527f697374656e7420746f6b656e0000000000000000000000000000000000000000602082015250565b7f4e6f7420616c6c6f776564000000000000000000000000000000000000000000600082015250565b7f4f776e61626c653a2063616c6c6572206973206e6f7420746865206f776e6572600082015250565b7f496e76616c6964206d65726b6c652070726f6f66000000000000000000000000600082015250565b7f4552433732314d657461646174613a2055524920717565727920666f72206e6f60008201527f6e6578697374656e7420746f6b656e0000000000000000000000000000000000602082015250565b7f53616c6520686176656e27742073746172746564000000000000000000000000600082015250565b7f4552433732313a20617070726f76616c20746f2063757272656e74206f776e6560008201527f7200000000000000000000000000000000000000000000000000000000000000602082015250565b7f5072652d73616c6520686176656e277420737461727465640000000000000000600082015250565b7f4e6f7420616c6c6f776564206f726967696e0000000000000000000000000000600082015250565b50565b7f5472616e73666572206661696c65642e00000000000000000000000000000000600082015250565b7f4552433732313a207472616e736665722063616c6c6572206973206e6f74206f60008201527f776e6572206e6f7220617070726f766564000000000000000000000000000000602082015250565b61459d81613d2d565b81146145a857600080fd5b50565b6145b481613d3f565b81146145bf57600080fd5b50565b6145cb81613d4b565b81146145d657600080fd5b50565b6145e281613d55565b81146145ed57600080fd5b50565b6145f981613da1565b811461460457600080fd5b5056fea26469706673582212203c3b3d5412e0cfefba6e3ed26e3d3c088b154cd9f83c230ef7da8767df91cde964736f6c63430008040033",
  "linkReferences": {},
  "deployedLinkReferences": {}
}